:020000040800F2
:1000000090060020BD0C0008B1020008B3020008F1
:10001000B7020008BB020008BF0200080000000091
:10002000000000000000000000000000C302000803
:10003000C502000800000000C7020008C90200084D
:10004000D70C0008D70C0008D70C0008D70C000804
:10005000D70C0008D70C0008D70C00083D06000894
:10006000D70C0008D70C0008D70C0008D70C0008E4
:10007000D70C0008D70C0008D70C0008D70C0008D4
:10008000D70C0008D70C0008D70C0008D70C0008C4
:10009000D70C0008D70C0008D70C0008D70C0008B4
:1000A000D70C0008D70C0008D70C0008D70C0008A4
:1000B000D70C0008D70C0008D70C0008D70C000894
:1000C000D70C0008D70C0008D70C0008D70C000884
:1000D000D70C0008D70C0008D70C0008D70C000874
:1000E000D70C0008D70C0008D70C0008D70C000864
:1000F000D70C0008D70C0008D70C0008D70C000854
:10010000D70C0008D70C0008D70C0008D70C000843
:10011000D70C0008D70C0008D70C0008D70C000833
:10012000D70C0008D70C0008D70C0008D70C000823
:1001300000F002F800F03CF80AA090E8000C8244BD
:100140008344AAF10107DA4501D100F031F8AFF29A
:10015000090EBAE80F0013F0010F18BFFB1A43F0A5
:1001600001031847EC1E00000C1F0000103A24BFCA
:1001700078C878C1FAD8520724BF30C830C144BF0C
:1001800004680C607047000000230024002500264E
:10019000103A28BF78C1FBD8520728BF30C148BFEA
:1001A0000B6070471FB501F024FF1FBD10B510BDD7
:1001B00001F0E3FE1146FFF7F5FF00F058F801F0FB
:1001C00001FF03B4FFF7F2FF03BC01F00BFF0000D7
:1001D00000B585B04FF4165001900020ADF808002E
:1001E000ADF80A00ADF80C000C20ADF80E000020B0
:1001F000ADF8100001A92C4801F0A1FA012240F24B
:100200002551294801F033FB012240F2277126488D
:1002100001F02DFB0121244801F01DFB4FF400707B
:10022000ADF8000003208DF8020018208DF80300BF
:1002300069461E4800F022FF4FF48060ADF80000D0
:1002400004208DF8030003208DF80200694617484A
:1002500000F014FF05B000BD10B5012144F23C00D0
:1002600001F0BFF90121480401F0C8F910BDFFF702
:10027000F3FFFFF7ADFF00F073F900BFFEE770B5C5
:1002800005460C460BE014F8011B284601F053FB11
:1002900000BF4021284601F0BCFB0028F9D020789F
:1002A0000028F0D170BD0000003801400008014076
:1002B000704700BFFEE700BFFEE700BFFEE700BFDC
:1002C000FEE77047704770477047000000BF0100AD
:1002D000A0F10100FBD1704730B503460024002592
:1002E00000BF08E0002503E07820FFF7EFFF6D1C5A
:1002F0009D42F9D3641C052CF4D330BD70B50024A5
:10030000002500BF1DE000F04CFB6420FFF7E4FF78
:1003100000F088FB28B900F017FA3220FFF7DCFF65
:100320000DE00A20FFF7D8FF00F03FFB28B900F0EE
:100330000BFA3220FFF7D0FF01E0012503E0601C3B
:10034000C4B2052CDFDB00BF284670BD08B5012113
:10035000342001F046F94FF48070ADF80000102011
:100360008DF8030003208DF802006946BC4800F0B8
:1003700085FE4FF48071BA4800F02BFF0420ADF8E1
:10038000000010208DF8030003208DF8020069465C
:10039000B44800F073FE0421B24800F01AFF202098
:1003A000ADF8000010208DF8030003208DF8020046
:1003B0006946AD4800F062FE08BD00B587B0012176
:1003C00041F2040001F00DF90121A84800F025FFD9
:1003D000E020ADF8040018208DF8070003208DF808
:1003E000060001A99E4800F049FE1020ADF8040067
:1003F00003208DF8060010208DF8070001A99A4807
:1004000000F03CFE1021964800F0E3FE00219848E1
:1004100001F0BFFC0020ADF808004FF48270ADF889
:100420000A000020ADF80C000220ADF80E000020FC
:10043000ADF810004FF40070ADF812002820ADF8B0
:1004400014000020ADF816000720ADF8180002A92E
:10045000874801F0FBFB0121854801F09AFC07B0B9
:1004600000BD1FB50121102001F0BBF80220ADF83E
:10047000000004208DF8030003208DF80200694677
:10048000794800F0FBFD0121022000F00BFF022063
:10049000029000208DF80C000C208DF80D0001203A
:1004A0008DF80E0002A801F01CFB022001F071FB88
:1004B00002216D4800F08DFE022001F07CFB02203D
:1004C00001F08DFB07208DF8040000208DF8050059
:1004D0008DF8060001208DF8070001A800F0F7FC58
:1004E0001FBD08B50121052001F07BF84FF4807095
:1004F000ADF8000018208DF8030003208DF80200ED
:100500006946574800F0BAFD062001F0A4F8012121
:100510000C2001F066F8C020ADF8000003208DF833
:10052000020010208DF803006946524800F0A6FD35
:100530001020ADF800006946494800F09FFD802179
:100540004C4800F046FE08BD10B5FFF7CAFFFFF7A4
:1005500088FFFFF732FFFFF7F9FE00F0F5F810BD56
:100560000024FFF7F1FF44A14848FFF788FE48A1A7
:100570004648FFF784FE4AA14448FFF780FE4BA19E
:100580004248FFF77CFE4DA14048FFF778FE00206F
:100590004D49087051E04C480078102815D003DC14
:1005A00048B1012840D104E011283ED031283BD188
:1005B00000E000BF3DE0012043490870FFF79EFEC8
:1005C00010B931204049087033E000F080FA044649
:1005D0003EA12E48FFF753FE04F130012B4801F0F5
:1005E000AAF9012C06D0022C09D0032C0CD0042C23
:1005F00014D10EE038A12548FFF741FE0FE03CA1E1
:100600002248FFF73CFE0AE03FA12048FFF737FEF3
:1006100005E044A11D48FFF732FE00E000BF00BF27
:1006200000202949087004E000BF00202649087016
:1006300000BF00BF204600F021FBACE710B5022050
:1006400001F0BCFA58B100F03DF93CA10F48FFF7AA
:1006500016FE022001F0AFFA022001F0C0FA10BD30
:100660000008014000140140001001400002300069
:1006700000300140000C014020B4AEBFDAD4CBD032
:10068000D0D6D02E2E2E2E0D0A00000000380140AC
:10069000BFDAC1EEA3BA31A1A2BFAAB5C60D0A0046
:1006A00032A1A2B9D8B5C60D0A00000033A1A2B08C
:1006B000B4BCFCB4A5B7A20D0A00000034A1A2C8C6
:1006C000ABC3F00D0A000000000000200D0ACAB6FE
:1006D000B1F0C2EB3A000000A1B0BFAAB5C6A1B10B
:1006E000C3FCC1EECAB6B1F0B3C9B9A60D0A000089
:1006F000A1B0B9D8B5C6A1B1C3FCC1EECAB6B1F0BC
:10070000B3C9B9A60D0A0000A1B0B0B4BCFCB4A531
:10071000B7A2A1B1C3FCC1EECAB6B1F0B3C9B9A6C4
:100720000D0A0000A1B0C8ABC3F0A1B1C3FCC1EE7B
:10073000CAB6B1F0B3C9B9A60D0A0000BDF8C8EB3E
:10074000D6D0B6CF0D0A000010B54021E24800F027
:1007500040FD6420FFF7C0FD4021DF4800F03BFD75
:100760006420FFF7B9FD4021DB4800F032FD642032
:10077000FFF7B2FD1021D94800F02DFD6420FFF7EE
:10078000ABFD1021D54800F024FD6420FFF7A4FD47
:1007900010BD10B5062000F0E9F93521172000F052
:1007A000CCF90520FFF798FD062000F0DFF90321C2
:1007B000892000F0C2F90520FFF78EFD4321CF20EC
:1007C00000F0BBF90520FFF787FD0221CB2000F0E8
:1007D000B4F90A21112000F0B0F9C148007840288E
:1007E00010D100211E2000F0A8F90F21192000F0DF
:1007F000A4F918211B2000F0A0F92B211D2000F0E6
:100800009CF90FE000211E2000F097F93F211920EC
:1008100000F093F948211B2000F08FF91F211D20C3
:1008200000F08BF90520FFF757FD0421CD2000F0E3
:1008300084F94C21172000F080F90120FFF74CFDCE
:100840000021B92000F079F94F21CF2000F075F98F
:10085000FF216F2000F071F910BD10B50820A049EC
:100860000870FFF796FF0021BD2000F066F94821CF
:10087000172000F062F90520FFF72EFD80213C20B3
:1008800000F05BF907213E2000F057F9FF213820E6
:1008900000F053F907213A2000F04FF900214020E1
:1008A00000F04BF90821422000F047F900214420D4
:1008B00000F043F90821462000F03FF90120FFF73E
:1008C0000BFD10BD10B500242B2000F04FF9854919
:1008D000087085A18848FFF7D2FC0021292000F08C
:1008E0002CF90021022000F028F97E48007810F051
:1008F000100F19D0B22000F039F9212814D1BF20EF
:1009000000F034F935280FD1BA2000F02FF9044651
:10091000002C05DD042C03DC10207849087006E06B
:1009200011207649087002E01120744908700021F6
:100930002B2000F002F900211C2000F0FEF800211D
:10094000292000F0FAF80021022000F0F6F800213A
:100950002B2000F0F2F80021BA2000F0EEF8002180
:10096000BC2000F0EAF80121082000F0E6F80021A0
:10097000082000F0E2F810BD70B5002500240BE05F
:10098000B22000F0F3F8212801D1012506E00A2069
:10099000FFF7A2FC601CC4B20A2CF1DB00BF2846A2
:1009A00070BD10B5FFF759FF10BD10B543213520BC
:1009B00000F0C3F809211C2000F0BFF82021BD2061
:1009C00000F0BBF80121082000F0B7F80520FFF780
:1009D00083FC0021082000F0B0F80520FFF77CFC24
:1009E000FFF7CAFF08B9002010BDFF21B22000F0B8
:1009F000A4F80621372000F0A0F80621372000F0E7
:100A00009CF80520FFF768FC0B211C2000F095F8EE
:100A10001021292000F091F80021BD2000F08DF870
:100A20000120E1E770B596B05022354902A801F0E7
:100A30006FFA34A0006801900126002441E0FFF71E
:100A40009BFF08B900263EE001A8015DC12000F02F
:100A500074F80021C32000F070F80421082000F091
:100A60006CF80120FFF738FC0021082000F065F841
:100A70000120FFF731FC002512E004EB840002A9FD
:100A800001EB8000405D00B90CE004EB840002AA99
:100A900002EB8000415D052000F04FF8681CC5B2F4
:100AA000142DEADB00BF2946B92000F046F8FF21EB
:100AB000B22000F042F80421372000F03EF8601C1C
:100AC000C4B2042CBBDB00BF304616B070BD10B5FD
:100AD000C52000F04BF810BD000C0140000801409B
:100AE0000100002002000020D3D0C9F9D2F4CAE4EA
:100AF000C8EB0D0A00000000003801400000002093
:100B0000002000080102030410B5044600BF0221C2
:100B1000234801F0C7F90028F9D02146204801F008
:100B20006EF900BF01211E4801F0BCF90028F9D080
:100B30001B4801F066F9C0B210BD70B505460C4601
:100B40001021184800F047FB1021174800F043FB24
:100B50000420FFF7D9FF2846FFF7D6FF2046FFF70E
:100B6000D3FF10210F4800F034FB70BD70B5044670
:100B700010210C4800F02FFB10210B4800F02BFB3C
:100B80000520FFF7C1FF2046FFF7BEFF0020FFF75B
:100B9000BBFF05461021034800F01BFB284670BD33
:100BA0000030014000080140001001400CE0042129
:100BB00007E0712201E0531EDAB2002AFBDC4B1E73
:100BC000D9B20029F5DC401E0028F0D1704710B5DD
:100BD0004FF48071364800F0FCFA40F6FF70FFF7E2
:100BE000E5FF0421334800F0F4FA40F6FF70FFF708
:100BF000DDFF4FF480712E4800F0EDFA40F6FF70F3
:100C0000FFF7D4FF04212B4800F0E5FA40F6FF700F
:100C1000FFF7CCFF10BD10B54FF48071244800F0F1
:100C2000DAFA0421234800F0D6FA40F6FF70FFF705
:100C3000BDFF4FF480711E4800F0CBFA04211D481F
:100C400000F0C7FA40F6FF70FFF7B0FF10BD10B517
:100C50002021194800F0BDFA10BD10B5202116481A
:100C600000F0B9FA10BD10B54FF48071104800F0D3
:100C7000B0FA04210F4800F0ACFA10BD10B50446DC
:100C8000012C06D0022C07D0032C08D0042C0CD148
:100C900008E0FFF7DCFF09E0FFF7DFFF06E0FFF702
:100CA000BAFF03E0FFF7DFFF00E000BF00BF10BDA9
:100CB000000801400014014000100140094880472D
:100CC00009480047FEE7FEE7FEE7FEE7FEE7FEE72E
:100CD000FEE7FEE7FEE7FEE704480549054A064B46
:100CE00070470000C50D0008310100089000002089
:100CF0009006002090020020900200200021002099
:100D0000674A126842F48032654B1A6000BF644A39
:100D1000126802F40030491C10B9B1F5A06FF6D189
:100D20005F4A126812F4003F01D0012000E0002069
:100D3000012842D15B4A126842F01002594B1A60F6
:100D40001A46126822F003021A601A46126842F02C
:100D500002021A60524A5268514B5A601A4652684F
:100D60005A601A46526842F480625A601A465268C3
:100D700022F47C125A601A46526842F4E8125A6011
:100D80001A46126842F080721A6000BF444A126824
:100D900012F0007FFAD0424A526822F00302404B20
:100DA0005A601A46526842F002025A6000BF3C4A3A
:100DB000526802F00C02082AF9D1704710B5FFF70B
:100DC0009DFF10BD10B53648006840F00100344961
:100DD0000860084640683449084031494860084680
:100DE0000068324908402E4908600846006820F42F
:100DF000802008600846406820F4FE0048604FF4F8
:100E00001F008860FFF7DAFF4FF000602849086094
:100E100010BD10B5002100200022214B5B6803F0BB
:100E20000C0121B1042906D0082928D107E0214B63
:100E3000214C236027E01F4B1F4C236023E0184BFD
:100E40005B6803F47010164B5B6803F48032022376
:100E500003EB904022B9194B4343174C23600DE03C
:100E60000F4B5B6813F4003F04D0144B4343124C08
:100E7000236003E00F4B43430F4C236003E00D4B13
:100E80000D4C236000BF00BF054B5B68C3F3031329
:100E90000B4CE15C084B1B68CB40074C236010BD3A
:100EA00000100240002002400000FFF8FFFFF6FEA5
:100EB00008ED00E000127A000400002000093D0067
:100EC0000800002036490143364A1160704770B56A
:100ED000002100230F22C4784CB3324C246804F460
:100EE000E064C4F5E0644FEA1421C1F1040322FA7E
:100EF00001F2447804FA03F1847804EA020444EA33
:100F000001014FEA0111284C0678A155047804F03C
:100F10001F054FF0010404FA05F405784FEA651542
:100F20004FF0E02606EB8505C5F8004109E004789E
:100F300004F01F050124AC401C4D0678761145F8DD
:100F4000264070BD1A4A0A4002431A4B1A60704785
:100F500041B1194A126842EA00024FF0E023C3F897
:100F6000102D07E0144A126822EA00024FF0E02335
:100F7000C3F8102D7047042808D14FF0E02109690B
:100F800041F004014FF0E022116107E04FF0E02151
:100F9000096921F004014FF0E0221161704700005F
:100FA0000000FA050CED00E000E400E080E100E064
:100FB00080FFFF1F08ED00E010ED00E010B50446D3
:100FC000CA48844208D10121042000F024FB0021FA
:100FD000042000F020FB46E0C548844208D10121EE
:100FE000082000F018FB0021082000F014FB3AE074
:100FF000C048844208D10121102000F00CFB0021E0
:10100000102000F008FB2EE0BB48844208D10121EB
:10101000202000F000FB0021202000F0FCFA22E05C
:10102000B648844208D10121402000F0F4FA0021A2
:10103000402000F0F0FA16E0B148844208D10121C6
:10104000802000F0E8FA0021802000F0E4FA0AE0B5
:10105000AC48844207D10121801500F0DCFA002160
:10106000A01500F0D8FA10BD10B50121084600F017
:10107000D2FA0021012000F0CEFA10BD2DE9F04196
:10108000024600250026002000230024002791F8B6
:1010900003C00CF00F0591F803C01CF0100F03D033
:1010A00091F802C04CEA0505B1F800C01CF0FF0F32
:1010B00031D0146800202BE04FF0010C0CFA00F343
:1010C000B1F800C00CEA03069E4220D183004FF025
:1010D0000F0C0CFA03F7BC4305FA03FC4CEA0404BA
:1010E00091F803C0BCF1280F06D14FF0010C0CFAA7
:1010F00000FCC2F814C00AE091F803C0BCF1480F2C
:1011000005D14FF0010C0CFA00FCC2F810C0401CD5
:101110000828D1D31460B1F800C0BCF1FF0F34DD52
:10112000546800202EE000F1080C4FF0010808FA86
:101130000CF3B1F800C00CEA03069E4221D18300F3
:101140004FF00F0C0CFA03F7BC4305FA03FC4CEA12
:10115000040491F803C0BCF1280F05D100F1080C7C
:1011600008FA0CF8C2F8148091F803C0BCF1480FDB
:1011700007D100F1080C4FF0010808FA0CF8C2F88A
:101180001080401C0828CED35460BDE8F0814FF693
:10119000FF710180022181700421C17070470246F5
:1011A000002093680B4201D0012000E0002070472E
:1011B0000146886880B2704702460020D3680B421F
:1011C00001D0012000E0002070470146C86880B2CD
:1011D000704701617047416170470AB1016100E0E9
:1011E00041617047C16070474FF480320A438261A9
:1011F0008161826182698269704702460020424BA8
:1012000018684FF68073184040EA021008433E4BBE
:10121000186070473D49C8617047F0B50A46002321
:1012200000240021002500F00046B6F1004F02D155
:10123000354EF16901E0344E7168C0F3034583B265
:1012400000F44016B6F5401F08D121F070612E4E13
:10125000766826F070662C4F7E6012E000F48016EF
:10126000B6F5801F06D1032606FA05F4A14341F026
:10127000706106E0460D360103FA06F6B14341F00F
:10128000706122B1460D360103FA06F6314300F0D3
:101290000046B6F1004F02D11B4EF16101E01A4E3B
:1012A0007160F0BD30B500228B071C0F0F2303FACD
:1012B00004F2154B08338C1053F824309343124C2E
:1012C00008348D1044F8253023468C1053F8243010
:1012D0008C07240F00FA04F423430B4C08348D10C0
:1012E00044F8253030BD0A490860704700080140C5
:1012F000000C0140001001400014014000180140A2
:10130000001C01400020014000000140000020427C
:10131000DC002042DB48006840F00100D949086049
:1013200008464068D8490840D649486008460068E1
:10133000D6490840D34908600846006820F4802058
:1013400008600846406820F4FE0048604FF41F0023
:1013500088607047CB49096821F48031C94A11601F
:101360001146096821F480211160B0F5803F03D057
:10137000B0F5802F0ED106E0C249096841F48031F2
:10138000C04A116007E0BF49096841F4A021BD4A85
:10139000116000E000BF00BF704710B50146002299
:1013A000002300204A11012A02D1B64C236806E02E
:1013B000022A02D1B34C236A01E0B24C636A01F005
:1013C0001F02012494401C4201D0012000E00020B3
:1013D00010BD70B500240025002600BF3120FFF7A6
:1013E000DCFF0646641CB4F5A06F01D0002EF5D0DA
:1013F0003120FFF7D2FF08B1012500E00025284683
:1014000070BD014600209F4A106820F0F80040EAB5
:10141000C100106070479E49086070470246002076
:10142000984B586820F47C1042EA01031843954B0E
:101430005860704796490866704701460020914AF7
:10144000506820F003000843506070478D484068A2
:1014500000F00C007047014600208A4A506820F0D6
:10146000F00008435060704701460020854A5068EC
:1014700020F4E06008435060704701460020814A34
:10148000506820F4605040EAC1005060704729B1B4
:101490007C4A527A02437B4B5A7206E0794A527A6E
:1014A000C343DBB21A40774B5A72704779490860E0
:1014B000704701460020734A506820F440400843BA
:1014C000506070470021744A11706E4A82F82010F3
:1014D000012802D0042808D103E001216E4A1170CE
:1014E00004E005216C4A117000E000BF00BF7047A6
:1014F0006A49086070476349096A0143614A116299
:10150000704767490860704730B500210022002409
:1015100000235C4D6D6805F00C0121B1042905D054
:10152000082923D105E05F4D056022E05D4D05608F
:101530001FE0544D6D6805F47012524D6D6805F44E
:101540008034022505EB92421CB9574D5543056086
:101550000BE04C4D6D6815F4003F03D0524D5543E0
:10156000056002E04F4D5543056002E04D4D0560BA
:1015700000BF00BF434D6D6805F0F00109094B4DF8
:101580006B5C0568DD4045603E4D6D6805F4E061CB
:10159000090A464D6B5C4568DD408560394D6D68D4
:1015A00005F46051C90A414D6B5C4568DD40C5607A
:1015B000344D6D6805F44041890B3D4D6B5CC56849
:1015C000B5FBF3F5056130BD29B12E4A52690243DE
:1015D0002C4B5A6104E02B4A52698243294B5A61D1
:1015E000704729B1274A92690243264B9A6104E069
:1015F000244A92698243234B9A61704729B1214A58
:10160000D26902431F4BDA6104E01E4AD269824369
:101610001C4BDA61704729B11A4AD2680243194B50
:10162000DA6004E0174AD2688243164BDA607047EA
:1016300029B1144A12690243124B1A6104E0114A9B
:10164000126982430F4B1A6170471A49086070474C
:101650000F49C86470470B49C87170470948406A10
:1016600040F0807007494862704701460020054AF3
:1016700092680A4201D0012000E000207047014931
:1016800088727047001002400000FFF8FFFFF6FE6E
:1016900000004242D80042422010024080044242F0
:1016A0003C04424200127A0000093D00180000206C
:1016B000280000204004424210B50446FC48844201
:1016C00009D101218803FFF7A6FF00214FF48040D4
:1016D000FFF7A1FF32E0F748844209D10121480415
:1016E000FFF7A6FF00214FF40030FFF7A1FF25E030
:1016F000F148844209D101218804FFF799FF0021B4
:101700004FF48020FFF794FF18E0EC48844209D1A1
:101710000121C804FFF78CFF00214FF40020FFF7E0
:1017200087FF0BE0E648844208D101210805FFF756
:101730007FFF00214FF48010FFF77AFF10BD2DE9E5
:10174000F04786B005460E460024A24600BFA146DB
:101750000027B08900B100BF2F462C8A4CF6FF70DD
:101760000440F08804432C82AC894EF6F310044008
:10177000B08831890843718908430443AC81AC8A3D
:101780004FF6FF400440B0890443AC8201A8FFF744
:10179000BBFEC748874202D1DDF810A001E0DDF8AA
:1017A0000CA0A88910F4004F08D00AEBCA0000EB87
:1017B0000A1031684900B0FBF1F807E00AEBCA00F3
:1017C00000EB0A1031688900B0FBF1F86420B8FB27
:1017D000F0F004012009642101FB1089A88910F4AC
:1017E000004F08D0322000EBC900B0FBF1F000F050
:1017F0000700044308E0322000EB09106421B0FB2D
:10180000F1F000F00F0004432C8106B0BDE8F08732
:101810004FF41651016000218180C18001810C21AB
:10182000418100218181704710B502460020108A55
:101830004FF2FF0318400B884C8823438C882343C6
:10184000CC8823431843108210BD002101804180C1
:101850008180C180704721B1828942F40052828127
:1018600004E082894DF6FF731A4082817047F0B51B
:1018700003460024002600250020A1F510676A3FDA
:1018800000D100BF1846C1F3421401F01F06012722
:1018900007FA06F5012C01D10C3004E0022C01D12D
:1018A000103000E014301AB107682F43076002E0DF
:1018B0000768AF430760F0BD10B51AB1838A0B43C8
:1018C000838204E0838ACC43A4B22340838210BD88
:1018D000028A4FF6F0731A400282028A0A43028299
:1018E000704782894FF2FF731A40828182890A43CE
:1018F0008281704721B1828942F00202828104E034
:1019000082894FF6FD731A4082817047028A4FF632
:10191000DF731A400282028A0A430282704721B1B1
:10192000028A42F48042028204E0028A4BF6FF738C
:101930001A4002827047C1F3080282807047014654
:101940008888C0F308007047818941F001018181D6
:101950007047028BD2B20283028B42EA01220283D9
:101960007047028B02F47F420283028B0A43028398
:10197000704721B1828A42F02002828204E0828A8A
:101980004FF6DF731A408282704721B1828A42F09B
:101990001002828204E0828A4FF6EF731A4082823C
:1019A000704721B1828A42F00802828204E0828A72
:1019B0004FF6F7731A408282704721B1828942F450
:1019C0000042828103E08289C2F30E028281704765
:1019D00021B1828A42F40062828204E0828A4FF25C
:1019E000FF731A4082827047828A4FF6FB731A4057
:1019F0008282828A0A438282704721B1828A42F0BF
:101A00000202828204E0828A4FF6FD731A408282CB
:101A1000704702460020B1F5007F00D100BF138857
:101A20000B4201D0012000E00020704701F4007259
:101A3000B2F5007F00D100BFCA430280704770B585
:101A400002460024002300250020A1F510666A3E0E
:101A500000D100BFC1F3421501F01F03012606FAB1
:101A600003F3012D02D19689334006E0022D02D105
:101A7000168A334001E0968A33400C12012606FA9A
:101A800004F41688344013B10CB1012000E00020AA
:101A900070BD10B500220023A1F510646A3C00D18E
:101AA00000BF0A1201249440A3B2DC43048010BD9D
:101AB000003801400044004000480040004C004015
:101AC000005000400020474908604749C1F804041D
:101AD0004649086001F1040108604548454908602D
:101AE000704700213F498279DAB33F4AD2F8002497
:101AF00003689A433C4BC3F800241A46D2F80424E6
:101B000003689A4301F104031A60027911440A68D8
:101B1000036842EA03020A60334AD2F808240368E1
:101B200022EA0302304BC3F808241A46D2F80C24E8
:101B3000036822EA0302304B1A604279102A11D15D
:101B4000294AD2F8082403681A43274BC3F808240B
:101B50001A46D2F80C2403681A43234BC3F80C240A
:101B60000EE007E01F49427911440A6803681A43EE
:101B70000A6005E0027911440A6803689A430A6022
:101B800070470021016001710C21417100218171B8
:101B900070471A49096841EA0001134AC2F8101453
:101BA000704701460020134A12680A4201D0012002
:101BB00000E0002070470F49086070470146002090
:101BC0000022084B1B6803EA0102074BD3F81434C8
:101BD0000B4202D00AB1012000E000207047054905
:101BE0000860704700040140000001400804014003
:101BF000FFFF0F00140401400C04014010040140D9
:101C000010B50446BF48844208D101218014FFF773
:101C100002FD0021A014FFF7FEFC16E0BA48844242
:101C200008D101210014FFF703FD00212014FFF764
:101C3000FFFC0AE0B548844207D10121C013FFF739
:101C4000F7FC0021E013FFF7F3FC10BD10B50022F4
:101C5000028802F441520B884C8823438C8823432A
:101C6000CC8823430C8923434C8923438C89234309
:101C7000CC8923431A430280838B4FF2FF742340A5
:101C800083830B8A038210BD2DE9F04F85B0054692
:101C90000C464FF0000902274FF000084FF0010BEF
:101CA0000026B246A88B4FF240010840A8830220CC
:101CB0002884B5F81C90A068022801D100BF36E046
:101CC000A08810B94FF0010B01E04FF0020B8E48D5
:101CD000854200D100E000BF6846FFF715FCDDF843
:101CE00000A0E088B0F5007F0AD14FEA1A2000EB8F
:101CF00080004000A168B0FBF1F0401D86B20BE00F
:101D00004FEA4B10BAFBF0F000EB80004000A168F6
:101D1000B0FBF1F0401D86B20A20B6FBF0F606F0EB
:101D20000108A6EB0800C0F34F074FEA0828022F6E
:101D300001DBFF2F02DD02274FF00008E08840EAB8
:101D4000080038432884A088A18908436188084393
:101D50002188084340F4006040EA0909A5F81C9076
:101D600005B0BDE8F08F0021018041808180C180F5
:101D7000018141818181C181072101827047002158
:101D8000018041808180C1800221816000218181A8
:101D9000704721B1028842F04002028004E00288CC
:101DA0004FF6BF731A400280704721B1828B42F414
:101DB0008062828304E0828B4FF6FF331A40828375
:101DC000704770B5002400230C110125A540ABB26B
:101DD0001AB185881D43858004E08588DE43B6B24C
:101DE0003540858070BD10B51AB183880B43838060
:101DF00004E08388CC43A4B22340838010BD81815A
:101E00007047014688897047A1F57E42FF3A04D0A9
:101E1000028842F48072028004E002884FF6FF6379
:101E20001A400280704721B1828842F00402828009
:101E300004E082884FF6FB731A4082807047028864
:101E40004FF2FF731A40028002880A4302807047F3
:101E5000018841F480510180704721B1028842F429
:101E60000052028004E002884DF6FF731A4002809F
:101E7000704702460020012901D0108B00E0908AB3
:101E800070470146088A7047B1F5804F04D1028837
:101E900042F48042028004E002884BF6FF731A404D
:101EA000028070470246002013890B4201D00120B6
:101EB00000E000207047CA4302817047F0B5024637
:101EC000002000240023002501F00F070126BE405A
:101ED000B4B20B1101269E40B3B2968806EA030500
:101EE0001689264202D00DB1012000E00020F0BD8D
:101EF00010B5002201F00F040123A3409AB2D3438E
:101F0000038110BD0030014000380040003C00401B
:101F100010B5203AC0F00B80B1E81850203AA0E884
:101F20001850B1E81850A0E81850BFF4F5AF5FEAB8
:101F3000027C24BFB1E81850A0E8185044BF18C96B
:101F400018C0BDE810405FEA827C24BF51F8043B12
:101F500040F8043B08BF7047D20728BF31F8023B66
:101F600048BF11F8012B28BF20F8023B48BF00F8FA
:101F7000012B7047704770477047754600F028F88E
:101F8000AE4605006946534620F00700854618B066
:101F900020B5FEF7A1FEBDE820404FF000064FF04F
:101FA00000074FF000084FF0000B21F00701AC468E
:101FB000ACE8C009ACE8C009ACE8C009ACE8C009AD
:101FC0008D4670470446AFF300802046FEF7F9F8CF
:101FD000004870472C00002001487047704700BF40
:101FE0003000002001491820ABBEFEE726000200A9
:101FF000704710B5FFF7F0FF4FF00001016010BD12
:102000006B61692064656E670000000000000000DD
:10201000000000006775616E20626900000000002A
:102020000000000000000000616E206A69616E20FF
:102030006368752066610000000000007175616EC4
:10204000206D696500000000000000000000000035
:1020500070200008000000202C0000006C01000827
:102060009C2000082C000020640600008801000865
:102070000000000000A24A04000000000000000070
:10208000010203040607080900000000010203041E
:0C20900001020304060708090204060808
:0400000508000131BD
:00000001FF
